S00F000074696E795F66772E7372656315
S11300000EC034C027C026C025C024C023C022C0CF
S113001021C020C025C11EC01DC01CC01BC011248E
S11300201FBECFE5D2E0DEBFCDBF10E0A0E6B0E05A
S1130030ECE0F4E002C005900D92A236B107D9F7C6
S113004020E0A2E6B0E001C01D92A73DB207E1F7AF
S1130050A8D1DAC1D5CF26B330E0A90102C05595A5
S113006047958A95E2F7CA01817008951F920F920D
S11300700FB60F9211248F938BB78F7B8BBF88B7EA
S1130080806188BF82E08ABD83BF12BE84E389BDDC
S113009089B7806189BF81E080936B008F910F9055
S11300A00FBE0F901F90189585B7806285BF889505
S11300B085B78F7D85BF089591E89CBD12BE92E0FF
S11300C09ABD813059F028F0823069F0833081F094
S11300D0089582E083BF88E689BD089582E083BFE6
S11300E088E689BD089582E083BF84E389BD0895CD
S11300F082E083BF88E689BD089589B7806189BF9E
S1130100D3DF89B78F7E89BF089590916C009111D8
S113011034C090E0880F991F9E6F90937000809375
S11301206F008AE08093D60080E0C6DF1CBC21C04B
S113013080916F009091700080FF04C086B382604C
S113014088BB03C086B38D7F88BB80916F0090917C
S11301507000969587959093700080936F008091BE
S1130160D60081508093D600C8DF80916C00811145
S113017004C08091D6008111DBCF08950F931F93A3
S1130180CF93DF934FEF460F662361F0EC01042F0A
S113019010E00F5F1F4F080F191F8991B6DFC017BA
S11301A0D107D9F7DF91CF911F910F910895CF9285
S11301B0DF92EF92FF920F931F93CF938C01C62F80
S11301C00F2EF4E6CF2ED12CE12CF12CF02D3EC0D5
S11301D08091630090916400A0916500B0916600E5
S11301E040916700509168006091690070916A00C5
S11301F084179507A607B70749F1AC01BD014F5F06
S11302005F4F6F4F7F4F4093630050936400609340
S1130210650070936600FC01EE58FF4F8081F80181
S11302208083609163007091640080916500909177
S11302306600A7019601C6D06093630070936400C2
S113024080936500909366000F5F1F4FC15000F6C6
S1130250CF911F910F91FF90EF90DF90CF90089571
S11302601F920F920FB60F9211242F933F934F9327
S11302705F936F937F938F939F93AF93BF93CF932A
S1130280DF93EF93FF9380916B00882361F088E6FE
S113029089BD81E080936C0010926B0010926E0017
S11302A010926D0050C080916C00882309F44BC0FB
S11302B0809162008F5F80936200C0916D00D09145
S11302C06E0082E0C8DED695C79590E09695982F8B
S11302D08827979587958C2B9D2B90936E00809300
S11302E06D0080916200883070F110926C00109261
S11302F062008091670090916800A0916900B091BC
S11303006A0020916D0030916E00FC01EE58FF4FA1
S11303102083BC01CD016F5F7F4F8F4F9F4F24E639
S113032030E040E050E04ED0609367007093680086
S11303308093690090936A0080E48ABF8BB78064DD
S11303408BBF88E086BBFF91EF91DF91CF91BF9186
S1130350AF919F918F917F916F915F914F913F9159
S11303602F910F900FBE0F901F9018951CBA411536
S1130370510581F0FB01460F571F282F30E0E1990A
S1130380FECF3FBB2EBB81918DBBE29AE19AE4176D
S1130390F507A9F780E090E008951DB8B99AC19ACD
S11303A00895F894C2E0C5BFBA9880E48ABF8BB7B9
S11303B080648BBF7894F1DFC0936000BB9A109285
S11303C06C001ED2A1E21A2EAA1BBB1BFD010DC09C
S11303D0AA1FBB1FEE1FFF1FA217B307E407F507F1
S11303E020F0A21BB30BE40BF50B661F771F881FCD
S11303F0991F1A9469F760957095809590959B0163
S10F0400AC01BD01CF010895F894FFCFBA
S105040C0200E8
S1130800CF93DF9300D000D01F92CDB7DEB711E0B5
S1130810198341E050E0BE016F5F7F4F81E0A6DDA8
S11308201092D6001A8382E08B838AEA8C8385E552
S11308308D831DE061E0CE010296B9DC1B8361E08B
S1130840CE0102969BDC2FEF84E39CE02150804094
S10D08509040E1F700C00000EDCF76
S9030000FC
